{
  "_format": "hh-sol-artifact-1",
  "contractName": "MuzartArtifact",
  "sourceName": "contracts/MuzartArtifact.sol",
  "abi": [
    {
      "inputs": [],
      "stateMutability": "nonpayable",
      "type": "constructor"
    },
    {
      "inputs": [],
      "name": "AccessControlBadConfirmation",
      "type": "error"
    },
    {
      "inputs": [
        {
          "internalType": "address",
          "name": "account",
          "type": "address"
        },
        {
          "internalType": "bytes32",
          "name": "neededRole",
          "type": "bytes32"
        }
      ],
      "name": "AccessControlUnauthorizedAccount",
      "type": "error"
    },
    {
      "inputs": [
        {
          "internalType": "address",
          "name": "sender",
          "type": "address"
        },
        {
          "internalType": "uint256",
          "name": "balance",
          "type": "uint256"
        },
        {
          "internalType": "uint256",
          "name": "needed",
          "type": "uint256"
        },
        {
          "internalType": "uint256",
          "name": "tokenId",
          "type": "uint256"
        }
      ],
      "name": "ERC1155InsufficientBalance",
      "type": "error"
    },
    {
      "inputs": [
        {
          "internalType": "address",
          "name": "approver",
          "type": "address"
        }
      ],
      "name": "ERC1155InvalidApprover",
      "type": "error"
    },
    {
      "inputs": [
        {
          "internalType": "uint256",
          "name": "idsLength",
          "type": "uint256"
        },
        {
          "internalType": "uint256",
          "name": "valuesLength",
          "type": "uint256"
        }
      ],
      "name": "ERC1155InvalidArrayLength",
      "type": "error"
    },
    {
      "inputs": [
        {
          "internalType": "address",
          "name": "operator",
          "type": "address"
        }
      ],
      "name": "ERC1155InvalidOperator",
      "type": "error"
    },
    {
      "inputs": [
        {
          "internalType": "address",
          "name": "receiver",
          "type": "address"
        }
      ],
      "name": "ERC1155InvalidReceiver",
      "type": "error"
    },
    {
      "inputs": [
        {
          "internalType": "address",
          "name": "sender",
          "type": "address"
        }
      ],
      "name": "ERC1155InvalidSender",
      "type": "error"
    },
    {
      "inputs": [
        {
          "internalType": "address",
          "name": "operator",
          "type": "address"
        },
        {
          "internalType": "address",
          "name": "owner",
          "type": "address"
        }
      ],
      "name": "ERC1155MissingApprovalForAll",
      "type": "error"
    },
    {
      "anonymous": false,
      "inputs": [
        {
          "indexed": true,
          "internalType": "address",
          "name": "account",
          "type": "address"
        },
        {
          "indexed": true,
          "internalType": "address",
          "name": "operator",
          "type": "address"
        },
        {
          "indexed": false,
          "internalType": "bool",
          "name": "approved",
          "type": "bool"
        }
      ],
      "name": "ApprovalForAll",
      "type": "event"
    },
    {
      "anonymous": false,
      "inputs": [
        {
          "indexed": false,
          "internalType": "string",
          "name": "newBaseURI",
          "type": "string"
        }
      ],
      "name": "BaseURIChanged",
      "type": "event"
    },
    {
      "anonymous": false,
      "inputs": [
        {
          "indexed": false,
          "internalType": "address",
          "name": "operator",
          "type": "address"
        },
        {
          "indexed": false,
          "internalType": "uint256",
          "name": "tokenId",
          "type": "uint256"
        },
        {
          "indexed": false,
          "internalType": "uint256",
          "name": "amount",
          "type": "uint256"
        }
      ],
      "name": "CopyMinted",
      "type": "event"
    },
    {
      "anonymous": false,
      "inputs": [
        {
          "indexed": false,
          "internalType": "address",
          "name": "account",
          "type": "address"
        }
      ],
      "name": "MinterRoleGranted",
      "type": "event"
    },
    {
      "anonymous": false,
      "inputs": [
        {
          "indexed": false,
          "internalType": "address",
          "name": "account",
          "type": "address"
        }
      ],
      "name": "MinterRoleRevoked",
      "type": "event"
    },
    {
      "anonymous": false,
      "inputs": [
        {
          "indexed": false,
          "internalType": "address",
          "name": "operator",
          "type": "address"
        },
        {
          "indexed": false,
          "internalType": "uint256",
          "name": "tokenId",
          "type": "uint256"
        },
        {
          "indexed": false,
          "internalType": "uint256",
          "name": "amount",
          "type": "uint256"
        }
      ],
      "name": "OriginalMinted",
      "type": "event"
    },
    {
      "anonymous": false,
      "inputs": [
        {
          "indexed": true,
          "internalType": "bytes32",
          "name": "role",
          "type": "bytes32"
        },
        {
          "indexed": true,
          "internalType": "bytes32",
          "name": "previousAdminRole",
          "type": "bytes32"
        },
        {
          "indexed": true,
          "internalType": "bytes32",
          "name": "newAdminRole",
          "type": "bytes32"
        }
      ],
      "name": "RoleAdminChanged",
      "type": "event"
    },
    {
      "anonymous": false,
      "inputs": [
        {
          "indexed": true,
          "internalType": "bytes32",
          "name": "role",
          "type": "bytes32"
        },
        {
          "indexed": true,
          "internalType": "address",
          "name": "account",
          "type": "address"
        },
        {
          "indexed": true,
          "internalType": "address",
          "name": "sender",
          "type": "address"
        }
      ],
      "name": "RoleGranted",
      "type": "event"
    },
    {
      "anonymous": false,
      "inputs": [
        {
          "indexed": true,
          "internalType": "bytes32",
          "name": "role",
          "type": "bytes32"
        },
        {
          "indexed": true,
          "internalType": "address",
          "name": "account",
          "type": "address"
        },
        {
          "indexed": true,
          "internalType": "address",
          "name": "sender",
          "type": "address"
        }
      ],
      "name": "RoleRevoked",
      "type": "event"
    },
    {
      "anonymous": false,
      "inputs": [
        {
          "indexed": true,
          "internalType": "address",
          "name": "operator",
          "type": "address"
        },
        {
          "indexed": true,
          "internalType": "address",
          "name": "from",
          "type": "address"
        },
        {
          "indexed": true,
          "internalType": "address",
          "name": "to",
          "type": "address"
        },
        {
          "indexed": false,
          "internalType": "uint256[]",
          "name": "ids",
          "type": "uint256[]"
        },
        {
          "indexed": false,
          "internalType": "uint256[]",
          "name": "values",
          "type": "uint256[]"
        }
      ],
      "name": "TransferBatch",
      "type": "event"
    },
    {
      "anonymous": false,
      "inputs": [
        {
          "indexed": true,
          "internalType": "address",
          "name": "operator",
          "type": "address"
        },
        {
          "indexed": true,
          "internalType": "address",
          "name": "from",
          "type": "address"
        },
        {
          "indexed": true,
          "internalType": "address",
          "name": "to",
          "type": "address"
        },
        {
          "indexed": false,
          "internalType": "uint256",
          "name": "id",
          "type": "uint256"
        },
        {
          "indexed": false,
          "internalType": "uint256",
          "name": "value",
          "type": "uint256"
        }
      ],
      "name": "TransferSingle",
      "type": "event"
    },
    {
      "anonymous": false,
      "inputs": [
        {
          "indexed": false,
          "internalType": "string",
          "name": "value",
          "type": "string"
        },
        {
          "indexed": true,
          "internalType": "uint256",
          "name": "id",
          "type": "uint256"
        }
      ],
      "name": "URI",
      "type": "event"
    },
    {
      "inputs": [],
      "name": "DEFAULT_ADMIN_ROLE",
      "outputs": [
        {
          "internalType": "bytes32",
          "name": "",
          "type": "bytes32"
        }
      ],
      "stateMutability": "view",
      "type": "function"
    },
    {
      "inputs": [],
      "name": "MINTER_ROLE",
      "outputs": [
        {
          "internalType": "bytes32",
          "name": "",
          "type": "bytes32"
        }
      ],
      "stateMutability": "view",
      "type": "function"
    },
    {
      "inputs": [
        {
          "internalType": "address",
          "name": "account",
          "type": "address"
        },
        {
          "internalType": "uint256",
          "name": "id",
          "type": "uint256"
        }
      ],
      "name": "balanceOf",
      "outputs": [
        {
          "internalType": "uint256",
          "name": "",
          "type": "uint256"
        }
      ],
      "stateMutability": "view",
      "type": "function"
    },
    {
      "inputs": [
        {
          "internalType": "address[]",
          "name": "accounts",
          "type": "address[]"
        },
        {
          "internalType": "uint256[]",
          "name": "ids",
          "type": "uint256[]"
        }
      ],
      "name": "balanceOfBatch",
      "outputs": [
        {
          "internalType": "uint256[]",
          "name": "",
          "type": "uint256[]"
        }
      ],
      "stateMutability": "view",
      "type": "function"
    },
    {
      "inputs": [],
      "name": "getCurrentTokenId",
      "outputs": [
        {
          "internalType": "uint256",
          "name": "",
          "type": "uint256"
        }
      ],
      "stateMutability": "view",
      "type": "function"
    },
    {
      "inputs": [
        {
          "internalType": "bytes32",
          "name": "role",
          "type": "bytes32"
        }
      ],
      "name": "getRoleAdmin",
      "outputs": [
        {
          "internalType": "bytes32",
          "name": "",
          "type": "bytes32"
        }
      ],
      "stateMutability": "view",
      "type": "function"
    },
    {
      "inputs": [
        {
          "internalType": "address",
          "name": "account",
          "type": "address"
        }
      ],
      "name": "grantMinterRole",
      "outputs": [],
      "stateMutability": "nonpayable",
      "type": "function"
    },
    {
      "inputs": [
        {
          "internalType": "bytes32",
          "name": "role",
          "type": "bytes32"
        },
        {
          "internalType": "address",
          "name": "account",
          "type": "address"
        }
      ],
      "name": "grantRole",
      "outputs": [],
      "stateMutability": "nonpayable",
      "type": "function"
    },
    {
      "inputs": [
        {
          "internalType": "bytes32",
          "name": "role",
          "type": "bytes32"
        },
        {
          "internalType": "address",
          "name": "account",
          "type": "address"
        }
      ],
      "name": "hasRole",
      "outputs": [
        {
          "internalType": "bool",
          "name": "",
          "type": "bool"
        }
      ],
      "stateMutability": "view",
      "type": "function"
    },
    {
      "inputs": [
        {
          "internalType": "address",
          "name": "account",
          "type": "address"
        },
        {
          "internalType": "address",
          "name": "operator",
          "type": "address"
        }
      ],
      "name": "isApprovedForAll",
      "outputs": [
        {
          "internalType": "bool",
          "name": "",
          "type": "bool"
        }
      ],
      "stateMutability": "view",
      "type": "function"
    },
    {
      "inputs": [
        {
          "internalType": "uint256",
          "name": "id",
          "type": "uint256"
        },
        {
          "internalType": "uint256",
          "name": "amount",
          "type": "uint256"
        }
      ],
      "name": "mintCopy",
      "outputs": [],
      "stateMutability": "nonpayable",
      "type": "function"
    },
    {
      "inputs": [
        {
          "internalType": "uint256",
          "name": "amount",
          "type": "uint256"
        },
        {
          "internalType": "string",
          "name": "tokenURI",
          "type": "string"
        }
      ],
      "name": "mintOriginal",
      "outputs": [],
      "stateMutability": "nonpayable",
      "type": "function"
    },
    {
      "inputs": [
        {
          "internalType": "bytes32",
          "name": "role",
          "type": "bytes32"
        },
        {
          "internalType": "address",
          "name": "callerConfirmation",
          "type": "address"
        }
      ],
      "name": "renounceRole",
      "outputs": [],
      "stateMutability": "nonpayable",
      "type": "function"
    },
    {
      "inputs": [
        {
          "internalType": "address",
          "name": "account",
          "type": "address"
        }
      ],
      "name": "revokeMinterRole",
      "outputs": [],
      "stateMutability": "nonpayable",
      "type": "function"
    },
    {
      "inputs": [
        {
          "internalType": "bytes32",
          "name": "role",
          "type": "bytes32"
        },
        {
          "internalType": "address",
          "name": "account",
          "type": "address"
        }
      ],
      "name": "revokeRole",
      "outputs": [],
      "stateMutability": "nonpayable",
      "type": "function"
    },
    {
      "inputs": [
        {
          "internalType": "address",
          "name": "from",
          "type": "address"
        },
        {
          "internalType": "address",
          "name": "to",
          "type": "address"
        },
        {
          "internalType": "uint256[]",
          "name": "ids",
          "type": "uint256[]"
        },
        {
          "internalType": "uint256[]",
          "name": "values",
          "type": "uint256[]"
        },
        {
          "internalType": "bytes",
          "name": "data",
          "type": "bytes"
        }
      ],
      "name": "safeBatchTransferFrom",
      "outputs": [],
      "stateMutability": "nonpayable",
      "type": "function"
    },
    {
      "inputs": [
        {
          "internalType": "address",
          "name": "from",
          "type": "address"
        },
        {
          "internalType": "address",
          "name": "to",
          "type": "address"
        },
        {
          "internalType": "uint256",
          "name": "id",
          "type": "uint256"
        },
        {
          "internalType": "uint256",
          "name": "value",
          "type": "uint256"
        },
        {
          "internalType": "bytes",
          "name": "data",
          "type": "bytes"
        }
      ],
      "name": "safeTransferFrom",
      "outputs": [],
      "stateMutability": "nonpayable",
      "type": "function"
    },
    {
      "inputs": [
        {
          "internalType": "address",
          "name": "operator",
          "type": "address"
        },
        {
          "internalType": "bool",
          "name": "approved",
          "type": "bool"
        }
      ],
      "name": "setApprovalForAll",
      "outputs": [],
      "stateMutability": "nonpayable",
      "type": "function"
    },
    {
      "inputs": [
        {
          "internalType": "bytes4",
          "name": "interfaceId",
          "type": "bytes4"
        }
      ],
      "name": "supportsInterface",
      "outputs": [
        {
          "internalType": "bool",
          "name": "",
          "type": "bool"
        }
      ],
      "stateMutability": "view",
      "type": "function"
    },
    {
      "inputs": [
        {
          "internalType": "uint256",
          "name": "tokenId",
          "type": "uint256"
        }
      ],
      "name": "uri",
      "outputs": [
        {
          "internalType": "string",
          "name": "",
          "type": "string"
        }
      ],
      "stateMutability": "view",
      "type": "function"
    }
  ],
  "bytecode": "0x60806040523480156200001157600080fd5b506040805160208101909152600081526200002c816200006e565b506200003a60003362000080565b50620000677f9f2df0fed2c77648de5860a4cc508cd0818c85b8b8a1ab4ceeef8d981c8956a63362000080565b50620002a4565b60026200007c8282620001d8565b5050565b60008281526003602090815260408083206001600160a01b038516845290915281205460ff16620001295760008381526003602090815260408083206001600160a01b03861684529091529020805460ff19166001179055620000e03390565b6001600160a01b0316826001600160a01b0316847f2f8788117e7eff1d82e926ec794901d17c78024a50270940304540a733656f0d60405160405180910390a45060016200012d565b5060005b92915050565b634e487b7160e01b600052604160045260246000fd5b600181811c908216806200015e57607f821691505b6020821081036200017f57634e487b7160e01b600052602260045260246000fd5b50919050565b601f821115620001d357600081815260208120601f850160051c81016020861015620001ae5750805b601f850160051c820191505b81811015620001cf57828155600101620001ba565b5050505b505050565b81516001600160401b03811115620001f457620001f462000133565b6200020c8162000205845462000149565b8462000185565b602080601f8311600181146200024457600084156200022b5750858301515b600019600386901b1c1916600185901b178555620001cf565b600085815260208120601f198616915b82811015620002755788860151825594840194600190910190840162000254565b5085821015620002945787850151600019600388901b60f8161c191681555b5050505050600190811b01905550565b611a7580620002b46000396000f3fe608060405234801561001057600080fd5b506004361061012b5760003560e01c806356189236116100ad578063c5aed6e211610071578063c5aed6e214610286578063d539139314610299578063d547741f146102ae578063e985e9c5146102c1578063f242432a146102d457600080fd5b8063561892361461023d57806369e2f0fb1461024557806391d1485414610258578063a217fddf1461026b578063a22cb4651461027357600080fd5b80632f2ff15d116100f45780632f2ff15d146101d157806336568abe146101e45780633a2b3c54146101f75780633dd1eb611461020a5780634e1273f41461021d57600080fd5b8062fdd58e1461013057806301ffc9a7146101565780630e89341c14610179578063248a9ca3146101995780632eb2c2d6146101bc575b600080fd5b61014361013e3660046111e8565b6102e7565b6040519081526020015b60405180910390f35b610169610164366004611228565b61030f565b604051901515815260200161014d565b61018c61018736600461124c565b61031a565b60405161014d91906112ab565b6101436101a736600461124c565b60009081526003602052604090206001015490565b6101cf6101ca36600461140c565b610442565b005b6101cf6101df3660046114b6565b6104a9565b6101cf6101f23660046114b6565b6104d4565b6101cf6102053660046114e2565b61050c565b6101cf610218366004611504565b6105f8565b61023061022b36600461151f565b61061f565b60405161014d919061161a565b600454610143565b6101cf610253366004611504565b6106f4565b6101696102663660046114b6565b610717565b610143600081565b6101cf61028136600461162d565b610742565b6101cf610294366004611669565b61074d565b610143600080516020611a2083398151915281565b6101cf6102bc3660046114b6565b610879565b6101696102cf3660046116ba565b61089e565b6101cf6102e23660046116e4565b6108cc565b6000818152602081815260408083206001600160a01b03861684529091529020545b92915050565b60006103098261092b565b60008181526005602052604081208054606092919061033890611749565b9050116103a45760405162461bcd60e51b815260206004820152602f60248201527f4d757a61727441727469666163743a2055524920717565727920666f72206e6f60448201526e3732bc34b9ba32b73a103a37b5b2b760891b60648201526084015b60405180910390fd5b600082815260056020526040902080546103bd90611749565b80601f01602080910402602001604051908101604052809291908181526020018280546103e990611749565b80156104365780601f1061040b57610100808354040283529160200191610436565b820191906000526020600020905b81548152906001019060200180831161041957829003601f168201915b50505050509050919050565b336001600160a01b03861681148015906104635750610461868261089e565b155b156104945760405163711bec9160e11b81526001600160a01b0380831660048301528716602482015260440161039b565b6104a18686868686610950565b505050505050565b6000828152600360205260409020600101546104c4816109b7565b6104ce83836109c4565b50505050565b6001600160a01b03811633146104fd5760405163334bd91960e11b815260040160405180910390fd5b6105078282610a58565b505050565b60045482106105795760405162461bcd60e51b815260206004820152603360248201527f4d757a61727441727469666163743a204e6f20617274696661637420666f756e60448201527219081dda5d1a081d1a194819da5d995b881251606a1b606482015260840161039b565b600081116105995760405162461bcd60e51b815260040161039b90611783565b6105b433838360405180602001604052806000815250610ac5565b604080513381526020810184905280820183905290517f8afcc23c2536181f1baa6765acf52e4f0b5a839398442fb0f7138ebbf2d5d3fc9181900360600190a15050565b6000610603816109b7565b61061b600080516020611a20833981519152836104a9565b5050565b606081518351146106505781518351604051635b05999160e01b81526004810192909252602482015260440161039b565b6000835167ffffffffffffffff81111561066c5761066c6112be565b604051908082528060200260200182016040528015610695578160200160208202803683370190505b50905060005b84518110156106ec576020808202860101516106bf906020808402870101516102e7565b8282815181106106d1576106d16117d3565b60209081029190910101526106e5816117ff565b905061069b565b509392505050565b60006106ff816109b7565b61061b600080516020611a2083398151915283610879565b60009182526003602090815260408084206001600160a01b0393909316845291905290205460ff1690565b61061b338383610b22565b610765600080516020611a2083398151915233610717565b6107c75760405162461bcd60e51b815260206004820152602d60248201527f4d757a61727441727469666163743a206d7573742068617665206d696e74657260448201526c081c9bdb19481d1bc81b5a5b9d609a1b606482015260840161039b565b600082116107e75760405162461bcd60e51b815260040161039b90611783565b60045461080533828560405180602001604052806000815250610ac5565b61080f8183610bb8565b6004805490600061081f836117ff565b91905055507fabafa09faf4ab789e73ac7721cd71d10c374a8f36097a908337aa8e55f505e7961084c3390565b604080516001600160a01b03909216825260208201849052810185905260600160405180910390a1505050565b600082815260036020526040902060010154610894816109b7565b6104ce8383610a58565b6001600160a01b03918216600090815260016020908152604080832093909416825291909152205460ff1690565b336001600160a01b03861681148015906108ed57506108eb868261089e565b155b1561091e5760405163711bec9160e11b81526001600160a01b0380831660048301528716602482015260440161039b565b6104a18686868686610c38565b60006001600160e01b03198216637965db0b60e01b1480610309575061030982610cc6565b6001600160a01b03841661097a57604051632bfa23e760e11b81526000600482015260240161039b565b6001600160a01b0385166109a357604051626a0d4560e21b81526000600482015260240161039b565b6109b08585858585610d16565b5050505050565b6109c18133610d69565b50565b60006109d08383610717565b610a505760008381526003602090815260408083206001600160a01b03861684529091529020805460ff19166001179055610a083390565b6001600160a01b0316826001600160a01b0316847f2f8788117e7eff1d82e926ec794901d17c78024a50270940304540a733656f0d60405160405180910390a4506001610309565b506000610309565b6000610a648383610717565b15610a505760008381526003602090815260408083206001600160a01b0386168085529252808320805460ff1916905551339286917ff6391f5c32d9c69d2a47ea670b442974b53935d1edc7fd64eb21e047a839171b9190a4506001610309565b6001600160a01b038416610aef57604051632bfa23e760e11b81526000600482015260240161039b565b604080516001808252602082018690528183019081526060820185905260808201909252906104a1600087848487610d16565b6001600160a01b038216610b4b5760405162ced3e160e81b81526000600482015260240161039b565b6001600160a01b03838116600081815260016020908152604080832094871680845294825291829020805460ff191686151590811790915591519182527f17307eab39ab6107e8899845ad3d59bd9653f200f220920489ca2b5937696c31910160405180910390a3505050565b60008281526005602052604090208054610bd190611749565b159050610c205760405162461bcd60e51b815260206004820181905260248201527f4d757a61727441727469666163743a2055524920697320696d6d757461626c65604482015260640161039b565b6000828152600560205260409020610507828261185e565b6001600160a01b038416610c6257604051632bfa23e760e11b81526000600482015260240161039b565b6001600160a01b038516610c8b57604051626a0d4560e21b81526000600482015260240161039b565b60408051600180825260208201869052818301908152606082018590526080820190925290610cbd8787848487610d16565b50505050505050565b60006001600160e01b03198216636cdb3d1360e11b1480610cf757506001600160e01b031982166303a24d0760e21b145b8061030957506301ffc9a760e01b6001600160e01b0319831614610309565b610d2285858585610da2565b6001600160a01b038416156109b05782513390600103610d5b5760208481015190840151610d54838989858589610fbf565b50506104a1565b6104a18187878787876110e3565b610d738282610717565b61061b5760405163e2517d3f60e01b81526001600160a01b03821660048201526024810183905260440161039b565b8051825114610dd15781518151604051635b05999160e01b81526004810192909252602482015260440161039b565b3360005b8351811015610ee0576020818102858101820151908501909101516001600160a01b03881615610e88576000828152602081815260408083206001600160a01b038c16845290915290205481811015610e61576040516303dee4c560e01b81526001600160a01b038a16600482015260248101829052604481018390526064810184905260840161039b565b6000838152602081815260408083206001600160a01b038d16845290915290209082900390555b6001600160a01b03871615610ecd576000828152602081815260408083206001600160a01b038b16845290915281208054839290610ec790849061191e565b90915550505b505080610ed9906117ff565b9050610dd5565b508251600103610f615760208301516000906020840151909150856001600160a01b0316876001600160a01b0316846001600160a01b03167fc3d58168c5ae7397731d063d5bbf3d657854427343f4c083240f7aacaa2d0f628585604051610f52929190918252602082015260400190565b60405180910390a450506109b0565b836001600160a01b0316856001600160a01b0316826001600160a01b03167f4a39dc06d4c0dbc64b70af90fd698a233a518aa5d07e595d983b8c0526c8f7fb8686604051610fb0929190611931565b60405180910390a45050505050565b6001600160a01b0384163b156104a15760405163f23a6e6160e01b81526001600160a01b0385169063f23a6e6190611003908990899088908890889060040161195f565b6020604051808303816000875af192505050801561103e575060408051601f3d908101601f1916820190925261103b918101906119a4565b60015b6110a7573d80801561106c576040519150601f19603f3d011682016040523d82523d6000602084013e611071565b606091505b50805160000361109f57604051632bfa23e760e11b81526001600160a01b038616600482015260240161039b565b805181602001fd5b6001600160e01b0319811663f23a6e6160e01b14610cbd57604051632bfa23e760e11b81526001600160a01b038616600482015260240161039b565b6001600160a01b0384163b156104a15760405163bc197c8160e01b81526001600160a01b0385169063bc197c819061112790899089908890889088906004016119c1565b6020604051808303816000875af1925050508015611162575060408051601f3d908101601f1916820190925261115f918101906119a4565b60015b611190573d80801561106c576040519150601f19603f3d011682016040523d82523d6000602084013e611071565b6001600160e01b0319811663bc197c8160e01b14610cbd57604051632bfa23e760e11b81526001600160a01b038616600482015260240161039b565b80356001600160a01b03811681146111e357600080fd5b919050565b600080604083850312156111fb57600080fd5b611204836111cc565b946020939093013593505050565b6001600160e01b0319811681146109c157600080fd5b60006020828403121561123a57600080fd5b813561124581611212565b9392505050565b60006020828403121561125e57600080fd5b5035919050565b6000815180845260005b8181101561128b5760208185018101518683018201520161126f565b506000602082860101526020601f19601f83011685010191505092915050565b6020815260006112456020830184611265565b634e487b7160e01b600052604160045260246000fd5b604051601f8201601f1916810167ffffffffffffffff811182821017156112fd576112fd6112be565b604052919050565b600067ffffffffffffffff82111561131f5761131f6112be565b5060051b60200190565b600082601f83011261133a57600080fd5b8135602061134f61134a83611305565b6112d4565b82815260059290921b8401810191818101908684111561136e57600080fd5b8286015b848110156113895780358352918301918301611372565b509695505050505050565b600067ffffffffffffffff8311156113ae576113ae6112be565b6113c1601f8401601f19166020016112d4565b90508281528383830111156113d557600080fd5b828260208301376000602084830101529392505050565b600082601f8301126113fd57600080fd5b61124583833560208501611394565b600080600080600060a0868803121561142457600080fd5b61142d866111cc565b945061143b602087016111cc565b9350604086013567ffffffffffffffff8082111561145857600080fd5b61146489838a01611329565b9450606088013591508082111561147a57600080fd5b61148689838a01611329565b9350608088013591508082111561149c57600080fd5b506114a9888289016113ec565b9150509295509295909350565b600080604083850312156114c957600080fd5b823591506114d9602084016111cc565b90509250929050565b600080604083850312156114f557600080fd5b50508035926020909101359150565b60006020828403121561151657600080fd5b611245826111cc565b6000806040838503121561153257600080fd5b823567ffffffffffffffff8082111561154a57600080fd5b818501915085601f83011261155e57600080fd5b8135602061156e61134a83611305565b82815260059290921b8401810191818101908984111561158d57600080fd5b948201945b838610156115b2576115a3866111cc565b82529482019490820190611592565b965050860135925050808211156115c857600080fd5b506115d585828601611329565b9150509250929050565b600081518084526020808501945080840160005b8381101561160f578151875295820195908201906001016115f3565b509495945050505050565b60208152600061124560208301846115df565b6000806040838503121561164057600080fd5b611649836111cc565b91506020830135801515811461165e57600080fd5b809150509250929050565b6000806040838503121561167c57600080fd5b82359150602083013567ffffffffffffffff81111561169a57600080fd5b8301601f810185136116ab57600080fd5b6115d585823560208401611394565b600080604083850312156116cd57600080fd5b6116d6836111cc565b91506114d9602084016111cc565b600080600080600060a086880312156116fc57600080fd5b611705866111cc565b9450611713602087016111cc565b93506040860135925060608601359150608086013567ffffffffffffffff81111561173d57600080fd5b6114a9888289016113ec565b600181811c9082168061175d57607f821691505b60208210810361177d57634e487b7160e01b600052602260045260246000fd5b50919050565b60208082526030908201527f4d757a61727441727469666163743a20616d6f756e74206d757374206265206760408201526f726561746572207468616e207a65726f60801b606082015260800190565b634e487b7160e01b600052603260045260246000fd5b634e487b7160e01b600052601160045260246000fd5b600060018201611811576118116117e9565b5060010190565b601f82111561050757600081815260208120601f850160051c8101602086101561183f5750805b601f850160051c820191505b818110156104a15782815560010161184b565b815167ffffffffffffffff811115611878576118786112be565b61188c816118868454611749565b84611818565b602080601f8311600181146118c157600084156118a95750858301515b600019600386901b1c1916600185901b1785556104a1565b600085815260208120601f198616915b828110156118f0578886015182559484019460019091019084016118d1565b508582101561190e5787850151600019600388901b60f8161c191681555b5050505050600190811b01905550565b80820180821115610309576103096117e9565b60408152600061194460408301856115df565b828103602084015261195681856115df565b95945050505050565b6001600160a01b03868116825285166020820152604081018490526060810183905260a06080820181905260009061199990830184611265565b979650505050505050565b6000602082840312156119b657600080fd5b815161124581611212565b6001600160a01b0386811682528516602082015260a0604082018190526000906119ed908301866115df565b82810360608401526119ff81866115df565b90508281036080840152611a138185611265565b9897505050505050505056fe9f2df0fed2c77648de5860a4cc508cd0818c85b8b8a1ab4ceeef8d981c8956a6a2646970667358221220256bb2ff29056bde1bec57a7d2bf926a85cbe0d517941ccf2d15c2e8d43d062364736f6c63430008140033",
  "linkReferences": {},
  "deployedLinkReferences": {}
}